:100000000C942A000C94E40A0C94110B0C943E0BF3
:100010000C9447000C9447000C9447000C94470044
:100020000C9447000C9447000C947E120C943812E8
:100030000C9447000C9447000C9447000C94470024
:100040000C9447000C9447000C9447000C94470014
:100050000C94470011241FBECFE5D8E0DEBFCDBF12
:1000600010E0A0E6B0E0EEE7FBE202C005900D92E2
:10007000A839B107D9F710E0A8E9B0E001C01D9296
:10008000AC3AB107E1F70E94FB130C94BD150C9438
:100090000000EF92FF920F931F937B018C0120E0F1
:1000A00030E040E05FE40E94F50388238CF0C80153
:1000B000B70120E030E040E05FE40E94C1010E940F
:1000C00055049B01AC01205030404040504806C0D0
:1000D000C801B7010E9455049B01AC01B901CA01D6
:1000E0001F910F91FF90EF900895A0E0B0E0EBE733
:1000F000F0E00C948615DC012B01FA019C91923002
:1001000008F439C1EB018881823008F433C194309E
:1001100069F4843009F02FC111969C91119789815F
:10012000981709F428C1AEE7B0E025C1843009F47E
:1001300021C18230A9F4923009F01DC19A01AD01AC
:1001400088E0EA010990AE01E90109929E0181501F
:10015000C1F7E201898111969C918923818308C1AD
:10016000923009F407C112962D903C901397EB0141
:100170008A819B811496AD90BD90CD90DC901797AD
:10018000EC80FD800E811F819101281B390BB90184
:1001900037FF04C066277727621B730B6032710537
:1001A0000CF061C0121613066CF537014801062EDB
:1001B00004C096948794779467940A94D2F721E0C8
:1001C00030E040E050E004C0220F331F441F551FB1
:1001D0006A95D2F721503040404050402E213F21B7
:1001E00040235123211531054105510521F021E01E
:1001F00030E040E050E079018A01E628F72808293C
:1002000019293CC0232BD1F1260E371E350146019A
:10021000062E04C096948794779467940A94D2F734
:1002200021E030E040E050E004C0220F331F441FC3
:10023000551F6A95D2F721503040404050402A2146
:100240003B214C215D21211531054105510521F04E
:1002500021E030E040E050E059016A01A628B728CB
:10026000C828D9280BC0821593052CF01C01AA249C
:10027000BB24650103C0EE24FF24870111969C91E5
:10028000D20111968C91981709F445C0992339F041
:10029000A80197012A193B094C095D0906C0A6016E
:1002A00095012E193F09400B510B57FD08C01182D3
:1002B0003382228224833583468357831DC081E0A5
:1002C00081833382228288279927DC01821B930B4A
:1002D000A40BB50B84839583A683B7830DC0220F2F
:1002E000331F441F551F24833583468357838281E0
:1002F000938101979383828324813581468157813D
:10030000DA01C9010197A109B1098F5F9F4FAF4F72
:10031000BF4328F30BC0918333822282EA0CFB1C7B
:100320000C1D1D1DE482F5820683178383E0808304
:10033000248135814681578157FF1AC0C901AA27F8
:1003400097FDA095BA2F81709070A070B0705695EF
:10035000479537952795822B932BA42BB52B848318
:100360009583A683B7838281938101969383828349
:10037000DF0101C0D201CD01CDB7DEB7E2E10C94BF
:10038000A215A0E2B0E0E7ECF1E00C9492156983CD
:100390007A838B839C832D833E834F835887E9E048
:1003A000EE2EF12CEC0EFD1ECE010196B7010E943F
:1003B0007E058E010F5E1F4FCE010596B8010E948B
:1003C0007E058A8991E089278A8BC701B801AE0131
:1003D000475E5F4F0E9475000E94A904A096E6E068
:1003E0000C94AE15A0E2B0E0E8EFF1E00C949215A9
:1003F00069837A838B839C832D833E834F835887C5
:10040000F9E0EF2EF12CEC0EFD1ECE010196B701A6
:100410000E947E058E010F5E1F4FCE010596B8012A
:100420000E947E05C701B801AE01475E5F4F0E9482
:1004300075000E94A904A096E6E00C94AE15A0E217
:10044000B0E0E5E2F2E00C94861569837A838B8351
:100450009C832D833E834F835887CE010196BE0136
:10046000675F7F4F0E947E05CE010596BE016F5EDD
:100470007F4F0E947E059985923088F0898982306D
:10048000C8F0943019F4823051F404C0843029F457
:10049000923081F48EE790E0C6C0923049F420E0BB
:1004A0009A858A89981321E02A87CE010996BBC0D4
:1004B000823049F420E09A858A89981321E02A8BBA
:1004C000CE014196B0C02D843E844F8458886D88FB
:1004D0007E888F88988CEE24FF248701AA24BB2471
:1004E000650140E050E060E070E0E0E0F0E0C10174
:1004F00081709070892BE9F0E60CF71C081D191D1E
:100500009A01AB012A0D3B1D4C1D5D1D80E090E062
:10051000A0E0B0E0E614F7040805190520F481E036
:1005200090E0A0E0B0E0BA01A901480F591F6A1F8E
:100530007B1FAA0CBB1CCC1CDD1C97FE08C081E0F5
:1005400090E0A0E0B0E0A82AB92ACA2ADB2A3196B6
:10055000E032F10549F0660C771C881C991C569412
:10056000479437942794C3CFFA85EA892B893C892D
:100570008B859C85280F391F2E5F3F4F17C0CA01FE
:1005800081709070892B61F016950795F794E79428
:1005900080E090E0A0E0B0E8E82AF92A0A2B1B2BC3
:1005A00076956795579547952F5F3F4F77FDE7CF36
:1005B0000CC0440F551F661F771F17FD4160EE0CDE
:1005C000FF1C001F111F21503040403090E05907A0
:1005D00090E0690790E4790760F32B8F3C8FDB0193
:1005E000CA018F779070A070B07080349105A1051A
:1005F000B10561F447FD0AC0E114F10401051105DC
:1006000029F0405C5F4F6F4F7F4F40781A8EFE1786
:1006100011F081E08A8F4D8F5E8F6F8F78A383E01A
:10062000898FCE0149960E94A904A096E2E10C941C
:10063000A215A8E1B0E0EFE1F3E00C948E15698318
:100640007A838B839C832D833E834F835887B9E0C5
:10065000EB2EF12CEC0EFD1ECE010196B7010E948F
:100660007E058E010F5E1F4FCE010596B8010E94D8
:100670007E052985223008F47EC03989323010F495
:10068000B8017CC08A859A8989278A87243011F02D
:10069000223031F4231709F06EC06EE770E06EC0AF
:1006A000343039F41D861E861F86188A1C861B86E8
:1006B00004C0323021F484E08987B7015FC02B8504
:1006C0003C858B899C89281B390B3C872B87ED84C3
:1006D000FE840F851889AD88BE88CF88D88CEA142F
:1006E000FB040C051D0540F4EE0CFF1C001F111F40
:1006F000215030403C872B8720E030E040E050E044
:1007000080E090E0A0E0B0E460E070E0EA14FB0478
:100710000C051D0540F0282B392B4A2B5B2BEA18C2
:10072000FB080C091D09B695A79597958795EE0CC2
:10073000FF1C001F111F6F5F7F4F6F31710531F775
:10074000DA01C9018F779070A070B0708034910584
:10075000A105B10561F427FD0AC0E114F10401050A
:10076000110529F0205C3F4F4F4F5F4F20782D87B8
:100770003E874F87588BBE01675F7F4FCB010E943A
:10078000A9046896EAE00C94AA15A8E1B0E0EBECA5
:10079000F3E00C94921569837A838B839C832D8379
:1007A0003E834F83588789E0E82EF12CEC0EFD1E26
:1007B000CE010196B7010E947E058E010F5E1F4F8C
:1007C000CE010596B8010E947E058985823040F0F1
:1007D0008989823028F0C701B8010E94F60501C05E
:1007E0008FEF6896E6E00C94AE15A8E1B0E0EBEF71
:1007F000F3E00C94921569837A838B839C832D8319
:100800003E834F83588789E0E82EF12CEC0EFD1EC5
:10081000CE010196B7010E947E058E010F5E1F4F2B
:10082000CE010596B8010E947E058985823040F090
:100830008989823028F0C701B8010E94F60501C0FD
:100840008FEF6896E6E00C94AE15A8E1B0E0EBE21D
:10085000F4E00C94921569837A838B839C832D83B7
:100860003E834F83588789E0E82EF12CEC0EFD1E65
:10087000CE010196B7010E947E058E010F5E1F4FCB
:10088000CE010596B8010E947E058985823040F030
:100890008989823028F0C701B8010E94F60501C09D
:1008A00081E06896E6E00C94AE15ACE0B0E0EBE5D4
:1008B000F4E00C94961569837A838B839C83CE0134
:1008C0000196BE016B5F7F4F0E947E058D81823055
:1008D00061F1823050F1843021F48E81882351F10E
:1008E0002EC02F81388537FD20C06E812F31310514
:1008F0001CF06623F9F023C08EE190E0821B930B7D
:1009000029853A854B855C8504C056954795379572
:1009100027958A95D2F76623B1F05095409530958A
:1009200021953F4F4F4F5F4F0EC020E030E040E039
:1009300050E009C02FEF3FEF4FEF5FE704C020E02A
:1009400030E040E050E8B901CA012C96E2E00C9496
:10095000B215DF92EF92FF920F931F93FC01E48098
:10096000F58006811781D1808081823048F480E053
:1009700090E0A0E1B0E0E82AF92A0A2B1B2BA5C0E1
:10098000843009F49FC0823021F4EE24FF248701D3
:1009900005C0E114F1040105110519F4E0E0F0E0EF
:1009A00096C0628173819FEF623879070CF05BC05B
:1009B00022E83FEF261B370B2A3131052CF020E0CF
:1009C00030E040E050E02AC0B801A701022E04C088
:1009D00076956795579547950A94D2F781E090E010
:1009E000A0E0B0E004C0880F991FAA1FBB1F2A9582
:1009F000D2F70197A109B1098E219F21A023B1232C
:100A00000097A105B10521F081E090E0A0E0B0E001
:100A10009A01AB01282B392B4A2B5B2BDA01C90138
:100A20008F779070A070B07080349105A105B105EA
:100A300039F427FF09C0205C3F4F4F4F5F4F04C080
:100A4000215C3F4F4F4F5F4FE0E0F0E02030A0E0EF
:100A50003A07A0E04A07A0E45A0710F0E1E0F0E00E
:100A600079018A0127C06038710564F5FB01E158FE
:100A7000FF4FD801C7018F779070A070B07080349D
:100A80009105A105B10539F4E7FE0DC080E490E0C1
:100A9000A0E0B0E004C08FE390E0A0E0B0E0E80E9A
:100AA000F91E0A1F1B1F17FF05C016950795F7941F
:100AB000E794319687E016950795F794E7948A9521
:100AC000D1F705C0EE24FF248701EFEFF0E06E2F91
:100AD000679566276795902F9F77D794DD24D794E5
:100AE0008E2F8695492F462B582F5D29B701CA01B5
:100AF0001F910F91FF90EF90DF900895FC01DB01B3
:100B0000408151812281622F6F7770E0221F22275E
:100B1000221F9381892F880F822B282F30E0991F65
:100B20009927991F11969C93119721153105A9F5C5
:100B3000411551056105710511F482E037C082E865
:100B40009FEF13969C938E9312979A01AB0167E0E7
:100B5000220F331F441F551F6A95D1F783E08C93F2
:100B60000DC0220F331F441F551F12968D919C916B
:100B70001397019713969C938E931297203080E0E1
:100B8000380780E0480780E4580758F314962D93FF
:100B90003D934D935C93179708952F3F310579F45A
:100BA000411551056105710519F484E08C93089590
:100BB00064FF03C081E08C9312C01C9210C02F57B9
:100BC000304013963C932E93129783E08C9387E0EA
:100BD000440F551F661F771F8A95D1F770641496CE
:100BE0004D935D936D937C93179708951F93DC014C
:100BF000FB019C91923008F447C08081823008F458
:100C000043C0943051F411961C91843099F5818140
:100C1000682F70E0611B71093FC0843021F0923071
:100C200031F48230B9F18181882389F12DC0119688
:100C30001C9111978230F1F081811817D9F4129626
:100C40002D913C911397828193818217930794F0A1
:100C500028173907BCF014968D919D910D90BC9189
:100C6000A02D2481358146815781281739074A07ED
:100C70005B0718F4112341F00AC082179307A407F9
:100C8000B50740F4112319F061E070E005C06FEF83
:100C90007FEF02C060E070E0CB011F910895DF9309
:100CA000CF93CDB7DEB7A7E2B0E0E7E2F0E0808116
:100CB00080648C93A7E2B0E0E7E2F0E08081806896
:100CC0008C93A7E2B0E0E7E2F0E080818F7D8C9327
:100CD000A6E2B0E0E6E2F0E080818F7D8C93A6E2B0
:100CE000B0E0E6E2F0E080818E7F8C93A6E2B0E097
:100CF000E6E2F0E0808182608C93A6E2B0E0E6E27A
:100D0000F0E0808184608C93A6E2B0E0E6E2F0E05F
:100D1000808180688C93CF91DF910895DF93CF938A
:100D200000D00F92CDB7DEB78B83A7E2B0E0E7E249
:100D3000F0E08081807E8C93A7E2B0E0E7E2F0E013
:100D400090818B81892B8C93A6E2B0E0E6E2F0E003
:100D5000808180648C93E6E2F0E0808182958F70E0
:100D6000882F90E0817090700097A9F3A6E2B0E020
:100D7000E6E2F0E0808180618C93E4E2F0E0808143
:100D800091819A83898389819A810F900F900F9026
:100D9000CF91DF910895DF93CF93CDB7DEB727973B
:100DA0000FB6F894DEBF0FBECDBF89836A834B8335
:100DB0008B81882309F074C08981282F30E03F831C
:100DC0002E838E819F818130910559F12E813F8143
:100DD000223031052CF48E819F81009769F0D2C0BA
:100DE0002E813F812230310589F18E819F818330B0
:100DF000910509F440C0C6C0AAE3B0E0EAE3F0E020
:100E00008081482F8A81282F30E081E090E0022EF7
:100E100002C0880F991F0A94E2F7809584238C936F
:100E2000B1C0A7E3B0E0E7E3F0E08081482F8A811A
:100E3000282F30E081E090E0022E02C0880F991F39
:100E40000A94E2F7809584238C939CC0A4E3B0E0DD
:100E5000E4E3F0E08081482F8A81282F30E081E0B0
:100E600090E0022E02C0880F991F0A94E2F7809545
:100E700084238C9387C0A1E3B0E0E1E3F0E08081BC
:100E8000482F8A81282F30E081E090E0022E02C0B6
:100E9000880F991F0A94E2F7809584238C9372C07F
:100EA0008B81813009F06EC08981282F30E03D832D
:100EB0002C838C819D818130910549F12C813D816C
:100EC000223031052CF48C819D81009761F05AC04D
:100ED0002C813D812230310571F18C819D818330DF
:100EE0009105E9F14FC0AAE3B0E0EAE3F0E08081C8
:100EF000482F8A81282F30E081E090E0022E02C046
:100F0000880F991F0A94E2F7842B8C933BC0A7E3C8
:100F1000B0E0E7E3F0E08081482F8A81282F30E0BD
:100F200081E090E0022E02C0880F991F0A94E2F738
:100F3000842B8C9327C0A4E3B0E0E4E3F0E080814D
:100F4000482F8A81282F30E081E090E0022E02C0F5
:100F5000880F991F0A94E2F7842B8C9313C0A1E3A6
:100F6000B0E0E1E3F0E08081482F8A81282F30E073
:100F700081E090E0022E02C0880F991F0A94E2F7E8
:100F8000842B8C9327960FB6F894DEBF0FBECDBF8F
:100F9000CF91DF910895DF93CF93CDB7DEB7279739
:100FA0000FB6F894DEBF0FBECDBF89836A834B8333
:100FB0008B81882309F074C08981282F30E03F831A
:100FC0002E838E819F818130910559F12E813F8141
:100FD000223031052CF48E819F81009769F0D2C0B8
:100FE0002E813F812230310589F18E819F818330AE
:100FF000910509F440C0C6C0ABE3B0E0EBE3F0E01C
:101000008081482F8A81282F30E081E090E0022EF5
:1010100002C0880F991F0A94E2F7809584238C936D
:10102000B1C0A8E3B0E0E8E3F0E08081482F8A8116
:10103000282F30E081E090E0022E02C0880F991F37
:101040000A94E2F7809584238C939CC0A5E3B0E0DA
:10105000E5E3F0E08081482F8A81282F30E081E0AD
:1010600090E0022E02C0880F991F0A94E2F7809543
:1010700084238C9387C0A2E3B0E0E2E3F0E08081B8
:10108000482F8A81282F30E081E090E0022E02C0B4
:10109000880F991F0A94E2F7809584238C9372C07D
:1010A0008B81813009F06EC08981282F30E03D832B
:1010B0002C838C819D818130910549F12C813D816A
:1010C000223031052CF48C819D81009761F05AC04B
:1010D0002C813D812230310571F18C819D818330DD
:1010E0009105E9F14FC0ABE3B0E0EBE3F0E08081C4
:1010F000482F8A81282F30E081E090E0022E02C044
:10110000880F991F0A94E2F7842B8C933BC0A8E3C5
:10111000B0E0E8E3F0E08081482F8A81282F30E0BA
:1011200081E090E0022E02C0880F991F0A94E2F736
:10113000842B8C9327C0A5E3B0E0E5E3F0E0808149
:10114000482F8A81282F30E081E090E0022E02C0F3
:10115000880F991F0A94E2F7842B8C9313C0A2E3A3
:10116000B0E0E2E3F0E08081482F8A81282F30E070
:1011700081E090E0022E02C0880F991F0A94E2F7E6
:10118000842B8C9327960FB6F894DEBF0FBECDBF8D
:10119000CF91DF910895DF93CF9300D000D0CDB7EA
:1011A000DEB789836A838981282F30E03C832B83D3
:1011B0008B819C8181309105D1F02B813C81223043
:1011C00031052CF48B819C81009761F01EC02B812E
:1011D0003C812230310581F08B819C8183309105E7
:1011E00081F013C0EAE3F0E08A8180830EC0E7E378
:1011F000F0E08A81808309C0E4E3F0E08A818083A3
:1012000004C0E1E3F0E08A8180830F900F900F909B
:101210000F90CF91DF910895DF93CF9300D000D04E
:10122000CDB7DEB789836A838981282F30E03C837C
:101230002B838B819C8181309105D1F02B813C8166
:10124000223031052CF48B819C81009761F01EC007
:101250002B813C812230310581F08B819C81833050
:10126000910581F013C0EBE3F0E08A8180830EC02A
:10127000E8E3F0E08A81808309C0E5E3F0E08A8159
:10128000808304C0E2E3F0E08A8180830F900F90B6
:101290000F900F90CF91DF910895DF93CF9300D0FF
:1012A00000D0CDB7DEB789836A838981282F30E0EB
:1012B0003C832B838B819C818130910549F12B816B
:1012C0003C81223031052CF48B819C81009761F0A8
:1012D0005AC02B813C812230310571F18B819C8178
:1012E00083309105E9F14FC0ABE3B0E0EBE3F0E010
:1012F0008081482F8A81282F30E081E090E0022E03
:1013000002C0880F991F0A94E2F784278C933BC090
:10131000A8E3B0E0E8E3F0E08081482F8A81282F3D
:1013200030E081E090E0022E02C0880F991F0A94FD
:10133000E2F784278C9327C0A5E3B0E0E5E3F0E073
:101340008081482F8A81282F30E081E090E0022EB2
:1013500002C0880F991F0A94E2F784278C9313C068
:10136000A2E3B0E0E2E3F0E08081482F8A81282FF9
:1013700030E081E090E0022E02C0880F991F0A94AD
:10138000E2F784278C930F900F900F900F90CF91DE
:10139000DF910895DF93CF9300D000D000D0CDB778
:1013A000DEB789836A838981282F30E03D832C83CF
:1013B0004C815D814130510549F18C819D818230A4
:1013C000910534F42C813D812115310561F057C020
:1013D0004C815D814230510561F18C819D8183306A
:1013E0009105D1F14CC0E9E3F0E08081282F30E095
:1013F0008A81882F90E0A90102C0559547958A956A
:10140000E2F7CA01582F51705B833AC0E6E3F0E07F
:101410008081282F30E08A81882F90E0A90102C0C6
:10142000559547958A95E2F7CA01582F51705B830D
:1014300027C0E3E3F0E08081282F30E08A81882F05
:1014400090E0A90102C0559547958A95E2F7CA0137
:10145000582F51705B8314C0E0E3F0E08081282FA7
:1014600030E08A81882F90E0A90102C05595479508
:101470008A95E2F7CA01582F51705B8301C002C000
:101480008B818E838E8126960FB6F894DEBF0FBEB9
:10149000CDBFCF91DF910895DF93CF93CDB7DEB766
:1014A000AFE5B0E0EFE5F0E0808180688C93ABE5DC
:1014B000B0E0EBE5F0E0808180648C93A5E5B0E0DE
:1014C000E5E5F0E080818E7F8C93A5E5B0E0E5E571
:1014D000F0E0808182608C93CF91DF910895DF935B
:1014E000CF9300D0CDB7DEB79A83898389819A8163
:1014F0009093A9008093A8000F900F90CF91DF9157
:101500000895DF93CF93CDB7DEB7AFE5B0E0EFE559
:10151000F0E0808180688C93ABE5B0E0EBE5F0E033
:10152000808180688C93A5E5B0E0E5E5F0E08081FE
:101530008B7F8C93A5E5B0E0E5E5F0E080818860E5
:101540008C93CF91DF910895DF93CF9300D0CDB7E7
:10155000DEB79A83898389819A819093A7008093CB
:10156000A6000F900F90CF91DF910895DF93CF9356
:10157000CDB7DEB7AFE5B0E0EFE5F0E080818068A1
:101580008C93ABE5B0E0EBE5F0E0808180628C937A
:10159000A4E5B0E0E4E5F0E080818F7B8C93CF910F
:1015A000DF910895DF93CF9300D0CDB7DEB79A8354
:1015B000898389819A819093A5008093A4000F90DC
:1015C0000F90CF91DF9108951F920F920FB60F9257
:1015D00011242F933F934F935F936F937F938F9338
:1015E0009F93AF93BF93EF93FF93DF93CF93CDB7C9
:1015F000DEB7E091A800F091A9000995CF91DF91A5
:10160000FF91EF91BF91AF919F918F917F916F91DA
:101610005F914F913F912F910F900FBE0F901F90B0
:1016200018951F920F920FB60F9211242F933F938C
:101630004F935F936F937F938F939F93AF93BF93DA
:10164000EF93FF93DF93CF93CDB7DEB7E091A60082
:10165000F091A7000995CF91DF91FF91EF91BF9194
:10166000AF919F918F917F916F915F914F913F913A
:101670002F910F900FBE0F901F9018951F920F92F1
:101680000FB60F9211242F933F934F935F936F9355
:101690007F938F939F93AF93BF93EF93FF93DF93CA
:1016A000CF93CDB7DEB7E091A400F091A5000995E6
:1016B000CF91DF91FF91EF91BF91AF919F918F916A
:1016C0007F916F915F914F913F912F910F900FBE3E
:1016D0000F901F901895DF93CF93CDB7DEB783E0BF
:1016E0006FE00E94CB0883E06FEF0E940C09CF915E
:1016F000DF910895DF93CF93CDB7DEB762970FB632
:10170000F894DEBF0FBECDBF84E18F871A8AB2C0C6
:1017100083E06A8940E00E94CB07198A9FC08989CB
:10172000982F9C5F83E0692F0E94CA09888B888963
:10173000882309F090C08989482F50E08A89282F92
:1017400030E0CA01880F991F880F991F820F931FDD
:10175000FC01EA57FF4F80818F8708C08989982F45
:101760009C5F83E0692F0E94CA09888B888988233F
:10177000A9F380E090E0A0E2B1E48B879C87AD877D
:10178000BE876B857C858D859E8520E030E04AEFA5
:1017900054E40E941F02DC01CB018F839887A98744
:1017A000BA876F81788589859A8520E030E040E8A6
:1017B0005FE30E94250488232CF481E090E09E835F
:1017C0008D833FC06F81788589859A8520E03FEFC2
:1017D0004FE757E40E94C50318164CF56B857C85CE
:1017E0008D859E8520E030E040E251E40E941F029A
:1017F000DC01CB01BC01CD010E944900DC01CB0121
:101800009E838D830FC088EC90E09C838B838B81BB
:101810009C810197F1F79C838B838D819E81019739
:101820009E838D838D819E81009769F714C06F819F
:10183000788589859A850E944900DC01CB019E83C9
:101840008D838D819E819A83898389819A81019775
:10185000F1F79A83898389898F5F898B898984309D
:1018600008F45DCF83E06A8941E00E94CB078A8952
:101870008F5F8A8B8A89843008F44ACF8F8562967D
:101880000FB6F894DEBF0FBECDBFCF91DF910895A4
:101890000F931F93DF93CF93CDB7DEB7CC54D040D7
:1018A0000FB6F894DEBF0FBECDBF80E060E041E030
:1018B0000E94CB0680E061E041E00E94CB0680E020
:1018C00062E041E00E94CB0681E06FEF0E94CB080E
:1018D000FE01E75BFF4F80E090E0ACE0B2E4808384
:1018E0009183A283B3838E010B5B1F4FFE01E75BE5
:1018F000FF4F608171818281938120E030E04AEF67
:1019000054E40E941F02DC01CB01F8018083918323
:10191000A283B383FE01EB5BFF4F60817181828103
:10192000938120E030E040E85FE30E9425048823B3
:1019300044F4FE01ED5BFF4F81E090E091838083F2
:1019400064C0FE01EB5BFF4F6081718182819381F6
:1019500020E03FEF4FE757E40E94C50318160CF054
:1019600043C0FE01E75BFF4F6081718182819381FB
:1019700020E030E040E251E40E941F02DC01CB0194
:101980008E010D5B1F4FBC01CD010E944900DC019F
:10199000CB01F801918380831FC0FE01EF5BFF4FF5
:1019A00088EC90E091838083FE01EF5BFF4F8081A4
:1019B00091810197F1F7FE01EF5BFF4F91838083E7
:1019C000DE01AD5BBF4FFE01ED5BFF4F808191817A
:1019D000019711969C938E93FE01ED5BFF4F8081E2
:1019E00091810097D1F624C08E010D5B1F4FFE013F
:1019F000EB5BFF4F60817181828193810E9449007E
:101A0000DC01CB01F80191838083FE01ED5BFF4F88
:101A100080819181FE01FF9691838083FE01FF9674
:101A2000808191810197F1F7FE01FF969183808378
:101A300088E30E941E0F80E090E0A4E3B2E48BAF45
:101A40009CAFADAFBEAF6BAD7CAD8DAD9EAD2BEAA7
:101A50003AEA4AE250E40E941F02DC01CB018FAB5C
:101A600098AFA9AFBAAF6FA978AD89AD9AAD20E0B4
:101A700030E040E85FE30E94250488231CF481E005
:101A80008EAB91C06FA978AD89AD9AAD20E030E002
:101A90004FE753E40E94C50318160CF07BC06BADF2
:101AA0007CAD8DAD9EAD20E030E04AE754E40E946D
:101AB0001903DC01CB018AAB9BABACABBDAB6AA914
:101AC0007BA98CA99DA920E030E04AEF54E40E9454
:101AD0001F02DC01CB018EA79FA7A8ABB9AB6EA5F7
:101AE0007FA588A999A920E030E040E85FE30E9443
:101AF000250488232CF481E090E09DA78CA73FC0AB
:101B00006EA57FA588A999A920E03FEF4FE757E48C
:101B10000E94C50318164CF56AA97BA98CA99DA93A
:101B200020E030E040E251E40E941F02DC01CB01E2
:101B3000BC01CD010E944900DC01CB019DA78CA70F
:101B40000FC088EC90E09BA78AA78AA59BA5019768
:101B5000F1F79BA78AA78CA59DA501979DA78CA7A8
:101B60008CA59DA5009769F724C06EA57FA588A9BF
:101B700099A90E944900DC01CB019DA78CA78CA5E7
:101B80009DA599A788A788A599A50197F1F799A779
:101B900088A70FC06FA978AD89AD9AAD0E944900A2
:101BA000DC01CB018EAB8EA98FA38FA18A95F1F7B3
:101BB0008FA38CE00E941E0F80E090E0A4E3B2E4CB
:101BC0008BA39CA3ADA3BEA36BA17CA18DA19EA161
:101BD0002BEA3AEA4AE250E40E941F02DC01CB0100
:101BE0008F8F98A3A9A3BAA36F8D78A189A19AA179
:101BF00020E030E040E85FE30E94250488231CF4E5
:101C000081E08E8F91C06F8D78A189A19AA120E08B
:101C100030E04FE753E40E94C50318160CF07BC078
:101C20006BA17CA18DA19EA120E030E04AE754E4A5
:101C30000E941903DC01CB018A8F9B8FAC8FBD8F73
:101C40006A8D7B8D8C8D9D8D20E030E04AEF54E4D1
:101C50000E941F02DC01CB018E8B9F8BA88FB98F56
:101C60006E897F89888D998D20E030E040E85FE3C0
:101C70000E94250488232CF481E090E09D8B8C8BBE
:101C80003FC06E897F89888D998D20E03FEF4FE7B7
:101C900057E40E94C50318164CF56A8D7B8D8C8D18
:101CA0009D8D20E030E040E251E40E941F02DC0103
:101CB000CB01BC01CD010E944900DC01CB019D8B11
:101CC0008C8B0FC088EC90E09B8B8A8B8A899B89D8
:101CD0000197F1F79B8B8A8B8C899D8901979D8B4E
:101CE0008C8B8C899D89009769F724C06E897F89C8
:101CF000888D998D0E944900DC01CB019D8B8C8BD6
:101D00008C899D89998B888B888999890197F1F7AE
:101D1000998B888B0FC06F8D78A189A19AA10E94A1
:101D20004900DC01CB018E8F8E8D8F878F858A9540
:101D3000F1F78F8781E00E941E0F80E090E0A0E025
:101D4000B0E48B879C87AD87BE876B857C858D854E
:101D50009E8520E030E04AEF54E40E941F02DC013F
:101D6000CB018F839887A987BA876F81788589850A
:101D70009A8520E030E040E85FE30E942504882354
:101D80002CF481E090E09E838D833FC06F81788545
:101D900089859A8520E03FEF4FE757E40E94C5030D
:101DA00018164CF56B857C858D859E8520E030E08E
:101DB00040E251E40E941F02DC01CB01BC01CD01D5
:101DC0000E944900DC01CB019E838D830FC088EC0B
:101DD00090E09C838B838B819C810197F1F79C839E
:101DE0008B838D819E8101979E838D838D819E81C2
:101DF000009769F714C06F81788589859A850E945C
:101E00004900DC01CB019E838D838D819E819A8365
:101E1000898389819A810197F1F79A83898386E082
:101E20000E941E0FC45BDF4F0FB6F894DEBF0FBEDB
:101E3000CDBFCF91DF911F910F910895DF93CF9385
:101E4000CDB7DEB769970FB6F894DEBF0FBECDBF32
:101E5000898F80E060E040E00E94CB0780E061E095
:101E600040E00E94CB0781E0698D0E940C0980E070
:101E700062E041E00E94CB0780E090E0A0E8BFE391
:101E80008D8B9E8BAF8BB88F6D897E898F89988D56
:101E90002BEA3AEA4AE250E40E941F02DC01CB013D
:101EA000898B9A8BAB8BBC8B69897A898B899C894E
:101EB00020E030E040E85FE30E94250488231CF422
:101EC00081E0888B91C069897A898B899C8920E01F
:101ED00030E04FE753E40E94C50318160CF07BC0B6
:101EE0006D897E898F89988D20E030E04AE754E43F
:101EF0000E941903DC01CB018C879D87AE87BF87C9
:101F00006C857D858E859F8520E030E04AEF54E426
:101F10000E941F02DC01CB0188879987AA87BB87B3
:101F2000688579858A859B8520E030E040E85FE31D
:101F30000E94250488232CF481E090E09F838E8307
:101F40003FC0688579858A859B8520E03FEF4FE714
:101F500057E40E94C50318164CF56C857D858E8567
:101F60009F8520E030E040E251E40E941F02DC0146
:101F7000CB01BC01CD010E944900DC01CB019F8354
:101F80008E830FC088EC90E09D838C838C819D8133
:101F90000197F1F79D838C838E819F8101979F83A9
:101FA0008E838E819F81009769F724C0688579852B
:101FB0008A859B850E944900DC01CB019F838E832B
:101FC0008E819F819B838A838A819B810197F1F710
:101FD0009B838A830FC069897A898B899C890E9437
:101FE0004900DC01CB01888B8889898389818A95A6
:101FF000F1F7898380E062E040E00E94CB076996B8
:102000000FB6F894DEBF0FBECDBFCF91DF9108951C
:10201000DF93CF93CDB7DEB769970FB6F894DEBFE5
:102020000FBECDBF898F80E060E041E00E94CB070A
:1020300080E061E040E00E94CB0781E0698D0E9472
:102040000C0980E062E041E00E94CB0780E090E074
:10205000A0E8BFE38D8B9E8BAF8BB88F6D897E8997
:102060008F89988D2BEA3AEA4AE250E40E941F02D7
:10207000DC01CB01898B9A8BAB8BBC8B69897A890C
:102080008B899C8920E030E040E85FE30E942504D2
:1020900088231CF481E0888B91C069897A898B89B7
:1020A0009C8920E030E04FE753E40E94C5031816F6
:1020B0000CF07BC06D897E898F89988D20E030E09F
:1020C0004AE754E40E941903DC01CB018C879D8709
:1020D000AE87BF876C857D858E859F8520E030E04B
:1020E0004AEF54E40E941F02DC01CB0188879987E4
:1020F000AA87BB87688579858A859B8520E030E043
:1021000040E85FE30E94250488232CF481E090E0FE
:102110009F838E833FC0688579858A859B8520E073
:102120003FEF4FE757E40E94C50318164CF56C8546
:102130007D858E859F8520E030E040E251E40E945D
:102140001F02DC01CB01BC01CD010E944900DC0172
:10215000CB019F838E830FC088EC90E09D838C839E
:102160008C819D810197F1F79D838C838E819F8166
:1021700001979F838E838E819F81009769F724C08A
:10218000688579858A859B850E944900DC01CB01A1
:102190009F838E838E819F819B838A838A819B818B
:1021A0000197F1F79B838A830FC069897A898B89AC
:1021B0009C890E944900DC01CB01888B8889898336
:1021C00089818A95F1F7898380E062E040E00E948E
:1021D000CB0769960FB6F894DEBF0FBECDBFCF9187
:1021E000DF910895DF93CF9300D000D0CDB7DEB755
:1021F0009C838B831A8219820FC029813A818B813B
:102200009C81FC01E20FF31F80810E9408108981EC
:102210009A8101969A83898329813A818B819C8155
:10222000FC01E20FF31F8081882339F70F900F9094
:102230000F900F90CF91DF910895DF93CF93CDB79B
:10224000DEB72C970FB6F894DEBF0FBECDBF6987FF
:102250007A878B879C8781E090E0A0E0B0E08D8357
:102260009E83AF83B88719821A821B821C8289855C
:102270009A85AB85BC850097A105B105B1F480E3D3
:102280000E9408107AC08D819E81AF81B8852AE0B6
:1022900030E040E050E0BC01CD010E944515DC017A
:1022A000CB018D839E83AF83B88789859A85AB8563
:1022B000BC852D813E814F815885BC01CD010E9496
:1022C0006415DA01C9010097A105B105E1F68D8118
:1022D0009E81AF81B8852AE030E040E050E0BC014B
:1022E000CD010E946415DA01C9018D839E83AF83FD
:1022F000B8873AC089859A85AB85BC852D813E819A
:102300004F815885BC01CD010E946415DA01C901D5
:1023100089839A83AB83BC838981805D0E94081086
:1023200089859A85AB85BC852D813E814F815885F5
:10233000BC01CD010E946415DC01CB0189879A871D
:10234000AB87BC878D819E81AF81B8852AE030E064
:1023500040E050E0BC01CD010E946415DA01C901E2
:102360008D839E83AF83B8878D819E81AF81B88531
:102370000097A105B10509F0BDCF2C960FB6F894D2
:10238000DEBF0FBECDBFCF91DF910895DF93CF9316
:1023900000D0CDB7DEB789836A838981882329F489
:1023A0008A8180580E941E0F07C08981813021F4E4
:1023B0008A8180540E941E0F0F900F90CF91DF9161
:1023C0000895DF93CF93CDB7DEB781E00E941E0F53
:1023D00080E80E941E0FCF91DF910895DF93CF9385
:1023E000CDB7DEB7A3E5B0E0E3E5F0E0808180643F
:1023F0008C93A3E5B0E0E3E5F0E0808188608C9306
:10240000A3E5B0E0E3E5F0E080818F7E8C93A3E567
:10241000B0E0E3E5F0E0808180628C93A3E5B0E07A
:10242000E3E5F0E080818E7F8C93A3E5B0E0E3E507
:10243000F0E0808182608C93A3E5B0E0E3E5F0E01A
:1024400080818B7F8C93CF91DF910895DF93CF9321
:1024500000D0CDB7DEB79A83898389819A81909322
:10246000AB008093AA000F900F90CF91DF91089559
:102470001F920F920FB60F9211242F933F934F93F9
:102480005F936F937F938F939F93AF93BF93EF93DC
:10249000FF93DF93CF93CDB7DEB7809198009091F3
:1024A00099000196909399008093980080919800EC
:1024B000909199002FE08334920769F4109299006B
:1024C00010929800E2E5F0E080EC8083E091AA00B1
:1024D000F091AB000995CF91DF91FF91EF91BF9102
:1024E000AF919F918F917F916F915F914F913F91AC
:1024F0002F910F900FBE0F901F9018951F920F9263
:102500000FB60F9211242F933F934F935F936F93C6
:102510007F938F939F93AF93BF93EF93FF93DF933B
:10252000CF93CDB7DEB780919A0090919B00019632
:1025300090939B0080939A0080919A0090919B00C9
:1025400027E28031920749F410929B0010929A0082
:10255000E091AA00F091AB000995CF91DF91FF9136
:10256000EF91BF91AF919F918F917F916F915F910B
:102570004F913F912F910F900FBE0F901F90189584
:10258000DF93CF93CDB7DEB7AFE4B0E0EFE4F0E098
:1025900080818E7F8C93AFE4B0E0EFE4F0E0808147
:1025A00082608C93AEE4B0E0EEE4F0E0808188607D
:1025B0008C93AEE4B0E0EEE4F0E0808180618C9337
:1025C000AFE4B0E0EFE4F0E080818F7B8C93AFE488
:1025D000B0E0EFE4F0E0808180688C93E6E4F0E026
:1025E0008FE19EE491838083EAE4F0E084EF91E060
:1025F00091838083AEE4B0E0EEE4F0E080818E7FF2
:102600008C93AEE4B0E0EEE4F0E0808182608C93E5
:10261000AEE4B0E0EEE4F0E080818B7F8C93CF916C
:10262000DF910895DF93CF93CDB7DEB762970FB6F2
:10263000F894DEBF0FBECDBF988B8F877A8B698BE6
:102640008091A0009091A100A091A200B091A30060
:102650002AE030E040E050E0BC01CD010E94451589
:102660009B01AC018F859889CC01A0E0B0E0820F7E
:10267000931FA41FB51F8093A0009093A100A09367
:10268000A200B093A30089899A898530910509F049
:10269000A9C080919600909197009C0140E050E085
:1026A0008091A0009091A100A091A200B091A30000
:1026B000281739074A075B0761F40E94E11180E699
:1026C00090E00E94F21082E060E041E00E94CB07BF
:1026D00089C01092A0001092A1001092A200109246
:1026E000A3000E94E1118FE690E00E94F21082E0C8
:1026F00061E041E00E94CB0780E090E0A8E4B3E411
:102700008B879C87AD87BE876B857C858D859E85F5
:1027100020E030E04AEF54E40E941F02DC01CB01CC
:102720008F839887A987BA876F81788589859A85ED
:1027300020E030E040E85FE30E94250488232CF489
:1027400081E090E09E838D833FC06F81788589858D
:102750009A8520E03FEF4FE757E40E94C503181623
:102760004CF56B857C858D859E8520E030E040E2D0
:1027700051E40E941F02DC01CB01BC01CD010E948B
:102780004900DC01CB019E838D830FC088EC90E073
:102790009C838B838B819C810197F1F79C838B8336
:1027A0008D819E8101979E838D838D819E8100976F
:1027B00069F714C06F81788589859A850E944900E0
:1027C000DC01CB019E838D838D819E819A838983D9
:1027D00089819A810197F1F79A8389831A8A198AE4
:1027E0000E94E11162960FB6F894DEBF0FBECDBF16
:1027F000CF91DF910895DF93CF9300D000D00F9257
:10280000CDB7DEB70E946B0B0E94480C82E060E0FF
:1028100041E00E94CB0682E061E041E00E94CB06ED
:102820000E947A0B898389818431D1F38981282F91
:1028300030E03D832C838C819D818433910509F4A4
:10284000A0C02C813D8125333105F4F48C819D811C
:102850008133910509F453C02C813D812233310528
:1028600034F48C819D818033910599F1D9CF2C81ED
:102870003D812233310509F458C08C819D81833319
:10288000910509F468C0CCCF2C813D8127333105F7
:1028900009F4B9C08C819D81883391056CF42C8139
:1028A0003D812533310509F482C08C819D818633B9
:1028B000910509F492C0B4CF2C813D8128333105B4
:1028C00009F4B7C08C819D818933910509F4C7C093
:1028D000A7CF80E30E94081080919C0090919D00FA
:1028E000019690939D0080939C0020919C003091D4
:1028F0009D0080E090E0B9010E94121391CF81E326
:102900000E94081080919C0090919D0001969093E8
:102910009D0080939C0020919C0030919D0081E05F
:1029200090E0B9010E9412137BCF82E30E9408104D
:1029300080919C0090919D00019690939D008093C2
:102940009C0020919C0030919D0082E090E0B901B4
:102950000E94121365CF83E30E94081080919C00AF
:1029600090919D00019690939D0080939C002091F2
:102970009C0030919D0083E090E0B9010E94121309
:102980004FCF84E30E94081080919C0090919D009D
:10299000019690939D0080939C0020919C00309123
:1029A0009D0084E090E0B9010E94121339CF85E3C5
:1029B0000E94081080919C0090919D000196909338
:1029C0009D0080939C0020919C0030919D0085E0AB
:1029D00090E0B9010E94121323CF86E30E940810F1
:1029E00080919C0090919D00019690939D00809312
:1029F0009C0020919C0030919D0086E090E0B90100
:102A00000E9412130DCF87E30E94081080919C0052
:102A100090919D00019690939D0080939C00209141
:102A20009C0030919D0087E090E0B9010E94121354
:102A3000F7CE88E30E94081080919C0090919D0041
:102A4000019690939D0080939C0020919C00309172
:102A50009D0088E090E0B9010E941213E1CE89E365
:102A60000E94081080919C0090919D000196909387
:102A70009D0080939C0020919C0030919D0089E0F6
:102A800090E0B9010E941213CBCE629FD001739FD8
:102A9000F001829FE00DF11D649FE00DF11D929FFA
:102AA000F00D839FF00D749FF00D659FF00D992739
:102AB000729FB00DE11DF91F639FB00DE11DF91F5D
:102AC000BD01CF0111240895A1E21A2EAA1BBB1B40
:102AD000FD010DC0AA1FBB1FEE1FFF1FA217B307EA
:102AE000E407F50720F0A21BB30BE40BF50B661F00
:102AF000771F881F991F1A9469F7609570958095C4
:102B000090959B01AC01BD01CF0108952F923F929A
:102B10004F925F926F927F928F929F92AF92BF92ED
:102B2000CF92DF92EF92FF920F931F93CF93DF9399
:102B3000CDB7DEB7CA1BDB0B0FB6F894DEBF0FBEF6
:102B4000CDBF09942A88398848885F846E847D8443
:102B50008C849B84AA84B984C884DF80EE80FD8045
:102B60000C811B81AA81B981CE0FD11D0FB6F894BB
:0E2B7000DEBF0FBECDBFED010895F894FFCF7C
:102B7E007070617373206973207269676874007076
:102B8E00706173732069732077726F6E6700000037
:102B9E00000000000000373839303435363031321D
:082BAE00333030303030393093
:00000001FF
