:100000000C942A000C94A50A0C94D20A0C94FF0AB2
:100010000C9447000C9447000C9447000C94470044
:100020000C9447000C9447000C9450110C940A1146
:100030000C9447000C9447000C9447000C94470024
:100040000C9447000C9447000C9447000C94470014
:100050000C94470011241FBECFE5D8E0DEBFCDBF12
:1000600010E0A8E6B0E001C01D92A437B107E1F7A7
:1000700010E0A0E6B0E0ECE2F9E202C005900D92DB
:10008000A836B107D9F70E94E4110C9494140C948B
:100090000000EF92FF920F931F937B018C0120E0F1
:1000A00030E040E05FE40E94F50388238CF0C80153
:1000B000B70120E030E040E05FE40E94C1010E940F
:1000C00055049B01AC01205030404040504806C0D0
:1000D000C801B7010E9455049B01AC01B901CA01D6
:1000E0001F910F91FF90EF900895A0E0B0E0EBE733
:1000F000F0E00C945D14DC012B01FA019C9192302C
:1001000008F439C1EB018881823008F433C194309E
:1001100069F4843009F02FC111969C91119789815F
:10012000981709F428C1A0E6B0E025C1843009F48D
:1001300021C18230A9F4923009F01DC19A01AD01AC
:1001400088E0EA010990AE01E90109929E0181501F
:10015000C1F7E201898111969C918923818308C1AD
:10016000923009F407C112962D903C901397EB0141
:100170008A819B811496AD90BD90CD90DC901797AD
:10018000EC80FD800E811F819101281B390BB90184
:1001900037FF04C066277727621B730B6032710537
:1001A0000CF061C0121613066CF537014801062EDB
:1001B00004C096948794779467940A94D2F721E0C8
:1001C00030E040E050E004C0220F331F441F551FB1
:1001D0006A95D2F721503040404050402E213F21B7
:1001E00040235123211531054105510521F021E01E
:1001F00030E040E050E079018A01E628F72808293C
:1002000019293CC0232BD1F1260E371E350146019A
:10021000062E04C096948794779467940A94D2F734
:1002200021E030E040E050E004C0220F331F441FC3
:10023000551F6A95D2F721503040404050402A2146
:100240003B214C215D21211531054105510521F04E
:1002500021E030E040E050E059016A01A628B728CB
:10026000C828D9280BC0821593052CF01C01AA249C
:10027000BB24650103C0EE24FF24870111969C91E5
:10028000D20111968C91981709F445C0992339F041
:10029000A80197012A193B094C095D0906C0A6016E
:1002A00095012E193F09400B510B57FD08C01182D3
:1002B0003382228224833583468357831DC081E0A5
:1002C00081833382228288279927DC01821B930B4A
:1002D000A40BB50B84839583A683B7830DC0220F2F
:1002E000331F441F551F24833583468357838281E0
:1002F000938101979383828324813581468157813D
:10030000DA01C9010197A109B1098F5F9F4FAF4F72
:10031000BF4328F30BC0918333822282EA0CFB1C7B
:100320000C1D1D1DE482F5820683178383E0808304
:10033000248135814681578157FF1AC0C901AA27F8
:1003400097FDA095BA2F81709070A070B0705695EF
:10035000479537952795822B932BA42BB52B848318
:100360009583A683B7838281938101969383828349
:10037000DF0101C0D201CD01CDB7DEB7E2E10C94BF
:100380007914A0E2B0E0E7ECF1E00C946914698321
:100390007A838B839C832D833E834F835887E9E048
:1003A000EE2EF12CEC0EFD1ECE010196B7010E943F
:1003B0007E058E010F5E1F4FCE010596B8010E948B
:1003C0007E058A8991E089278A8BC701B801AE0131
:1003D000475E5F4F0E9475000E94A904A096E6E068
:1003E0000C948514A0E2B0E0E8EFF1E00C946914FD
:1003F00069837A838B839C832D833E834F835887C5
:10040000F9E0EF2EF12CEC0EFD1ECE010196B701A6
:100410000E947E058E010F5E1F4FCE010596B8012A
:100420000E947E05C701B801AE01475E5F4F0E9482
:1004300075000E94A904A096E6E00C948514A0E241
:10044000B0E0E5E2F2E00C945D1469837A838B837B
:100450009C832D833E834F835887CE010196BE0136
:10046000675F7F4F0E947E05CE010596BE016F5EDD
:100470007F4F0E947E059985923088F0898982306D
:10048000C8F0943019F4823051F404C0843029F457
:10049000923081F480E690E0C6C0923049F420E0CA
:1004A0009A858A89981321E02A87CE010996BBC0D4
:1004B000823049F420E09A858A89981321E02A8BBA
:1004C000CE014196B0C02D843E844F8458886D88FB
:1004D0007E888F88988CEE24FF248701AA24BB2471
:1004E000650140E050E060E070E0E0E0F0E0C10174
:1004F00081709070892BE9F0E60CF71C081D191D1E
:100500009A01AB012A0D3B1D4C1D5D1D80E090E062
:10051000A0E0B0E0E614F7040805190520F481E036
:1005200090E0A0E0B0E0BA01A901480F591F6A1F8E
:100530007B1FAA0CBB1CCC1CDD1C97FE08C081E0F5
:1005400090E0A0E0B0E0A82AB92ACA2ADB2A3196B6
:10055000E032F10549F0660C771C881C991C569412
:10056000479437942794C3CFFA85EA892B893C892D
:100570008B859C85280F391F2E5F3F4F17C0CA01FE
:1005800081709070892B61F016950795F794E79428
:1005900080E090E0A0E0B0E8E82AF92A0A2B1B2BC3
:1005A00076956795579547952F5F3F4F77FDE7CF36
:1005B0000CC0440F551F661F771F17FD4160EE0CDE
:1005C000FF1C001F111F21503040403090E05907A0
:1005D00090E0690790E4790760F32B8F3C8FDB0193
:1005E000CA018F779070A070B07080349105A1051A
:1005F000B10561F447FD0AC0E114F10401051105DC
:1006000029F0405C5F4F6F4F7F4F40781A8EFE1786
:1006100011F081E08A8F4D8F5E8F6F8F78A383E01A
:10062000898FCE0149960E94A904A096E2E10C941C
:100630007914A8E1B0E0EFE1F3E00C94651469836C
:100640007A838B839C832D833E834F835887B9E0C5
:10065000EB2EF12CEC0EFD1ECE010196B7010E948F
:100660007E058E010F5E1F4FCE010596B8010E94D8
:100670007E052985223008F47EC03989323010F495
:10068000B8017CC08A859A8989278A87243011F02D
:10069000223031F4231709F06EC060E670E06EC0BE
:1006A000343039F41D861E861F86188A1C861B86E8
:1006B00004C0323021F484E08987B7015FC02B8504
:1006C0003C858B899C89281B390B3C872B87ED84C3
:1006D000FE840F851889AD88BE88CF88D88CEA142F
:1006E000FB040C051D0540F4EE0CFF1C001F111F40
:1006F000215030403C872B8720E030E040E050E044
:1007000080E090E0A0E0B0E460E070E0EA14FB0478
:100710000C051D0540F0282B392B4A2B5B2BEA18C2
:10072000FB080C091D09B695A79597958795EE0CC2
:10073000FF1C001F111F6F5F7F4F6F31710531F775
:10074000DA01C9018F779070A070B0708034910584
:10075000A105B10561F427FD0AC0E114F10401050A
:10076000110529F0205C3F4F4F4F5F4F20782D87B8
:100770003E874F87588BBE01675F7F4FCB010E943A
:10078000A9046896EAE00C948114A8E1B0E0EBECCF
:10079000F3E00C94691469837A838B839C832D83A3
:1007A0003E834F83588789E0E82EF12CEC0EFD1E26
:1007B000CE010196B7010E947E058E010F5E1F4F8C
:1007C000CE010596B8010E947E058985823040F0F1
:1007D0008989823028F0C701B8010E94F60501C05E
:1007E0008FEF6896E6E00C948514A8E1B0E0EBEF9B
:1007F000F3E00C94691469837A838B839C832D8343
:100800003E834F83588789E0E82EF12CEC0EFD1EC5
:10081000CE010196B7010E947E058E010F5E1F4F2B
:10082000CE010596B8010E947E058985823040F090
:100830008989823028F0C701B8010E94F60501C0FD
:100840008FEF6896E6E00C948514A8E1B0E0EBE247
:10085000F4E00C94691469837A838B839C832D83E1
:100860003E834F83588789E0E82EF12CEC0EFD1E65
:10087000CE010196B7010E947E058E010F5E1F4FCB
:10088000CE010596B8010E947E058985823040F030
:100890008989823028F0C701B8010E94F60501C09D
:1008A00081E06896E6E00C948514ACE0B0E0EBE5FE
:1008B000F4E00C946D1469837A838B839C83CE015E
:1008C0000196BE016B5F7F4F0E947E058D81823055
:1008D00061F1823050F1843021F48E81882351F10E
:1008E0002EC02F81388537FD20C06E812F31310514
:1008F0001CF06623F9F023C08EE190E0821B930B7D
:1009000029853A854B855C8504C056954795379572
:1009100027958A95D2F76623B1F05095409530958A
:1009200021953F4F4F4F5F4F0EC020E030E040E039
:1009300050E009C02FEF3FEF4FEF5FE704C020E02A
:1009400030E040E050E8B901CA012C96E2E00C9496
:100950008914DF92EF92FF920F931F93FC01E480C2
:10096000F58006811781D1808081823048F480E053
:1009700090E0A0E1B0E0E82AF92A0A2B1B2BA5C0E1
:10098000843009F49FC0823021F4EE24FF248701D3
:1009900005C0E114F1040105110519F4E0E0F0E0EF
:1009A00096C0628173819FEF623879070CF05BC05B
:1009B00022E83FEF261B370B2A3131052CF020E0CF
:1009C00030E040E050E02AC0B801A701022E04C088
:1009D00076956795579547950A94D2F781E090E010
:1009E000A0E0B0E004C0880F991FAA1FBB1F2A9582
:1009F000D2F70197A109B1098E219F21A023B1232C
:100A00000097A105B10521F081E090E0A0E0B0E001
:100A10009A01AB01282B392B4A2B5B2BDA01C90138
:100A20008F779070A070B07080349105A105B105EA
:100A300039F427FF09C0205C3F4F4F4F5F4F04C080
:100A4000215C3F4F4F4F5F4FE0E0F0E02030A0E0EF
:100A50003A07A0E04A07A0E45A0710F0E1E0F0E00E
:100A600079018A0127C06038710564F5FB01E158FE
:100A7000FF4FD801C7018F779070A070B07080349D
:100A80009105A105B10539F4E7FE0DC080E490E0C1
:100A9000A0E0B0E004C08FE390E0A0E0B0E0E80E9A
:100AA000F91E0A1F1B1F17FF05C016950795F7941F
:100AB000E794319687E016950795F794E7948A9521
:100AC000D1F705C0EE24FF248701EFEFF0E06E2F91
:100AD000679566276795902F9F77D794DD24D794E5
:100AE0008E2F8695492F462B582F5D29B701CA01B5
:100AF0001F910F91FF90EF90DF900895FC01DB01B3
:100B0000408151812281622F6F7770E0221F22275E
:100B1000221F9381892F880F822B282F30E0991F65
:100B20009927991F11969C93119721153105A9F5C5
:100B3000411551056105710511F482E037C082E865
:100B40009FEF13969C938E9312979A01AB0167E0E7
:100B5000220F331F441F551F6A95D1F783E08C93F2
:100B60000DC0220F331F441F551F12968D919C916B
:100B70001397019713969C938E931297203080E0E1
:100B8000380780E0480780E4580758F314962D93FF
:100B90003D934D935C93179708952F3F310579F45A
:100BA000411551056105710519F484E08C93089590
:100BB00064FF03C081E08C9312C01C9210C02F57B9
:100BC000304013963C932E93129783E08C9387E0EA
:100BD000440F551F661F771F8A95D1F770641496CE
:100BE0004D935D936D937C93179708951F93DC014C
:100BF000FB019C91923008F447C08081823008F458
:100C000043C0943051F411961C91843099F5818140
:100C1000682F70E0611B71093FC0843021F0923071
:100C200031F48230B9F18181882389F12DC0119688
:100C30001C9111978230F1F081811817D9F4129626
:100C40002D913C911397828193818217930794F0A1
:100C500028173907BCF014968D919D910D90BC9189
:100C6000A02D2481358146815781281739074A07ED
:100C70005B0718F4112341F00AC082179307A407F9
:100C8000B50740F4112319F061E070E005C06FEF83
:100C90007FEF02C060E070E0CB011F910895DF9309
:100CA000CF93CDB7DEB7A7E2B0E0E7E2F0E0808116
:100CB00080648C93A7E2B0E0E7E2F0E08081806896
:100CC0008C93A7E2B0E0E7E2F0E080818F7D8C9327
:100CD000A6E2B0E0E6E2F0E080818F7D8C93A6E2B0
:100CE000B0E0E6E2F0E080818E7F8C93A6E2B0E097
:100CF000E6E2F0E0808182608C93A6E2B0E0E6E27A
:100D0000F0E0808184608C93A6E2B0E0E6E2F0E05F
:100D1000808180688C93CF91DF910895DF93CF938A
:100D200000D00F92CDB7DEB78B83A7E2B0E0E7E249
:100D3000F0E08081807E8C93A7E2B0E0E7E2F0E013
:100D400090818B81892B8C93A6E2B0E0E6E2F0E003
:100D5000808180648C93E6E2F0E0808182958F70E0
:100D6000882F90E0817090700097A9F3A6E2B0E020
:100D7000E6E2F0E0808180618C93E4E2F0E0808143
:100D800091819A83898389819A810F900F900F9026
:100D9000CF91DF910895DF93CF93CDB7DEB727973B
:100DA0000FB6F894DEBF0FBECDBF89836A834B8335
:100DB0008B81813009F06FC08981282F30E03F831B
:100DC0002E838E819F818130910549F12E813F8153
:100DD000223031052CF48E819F81009761F0D2C0C2
:100DE0002E813F812230310571F18E819F818330C8
:100DF0009105E9F1C7C0AAE3B0E0EAE3F0E0808141
:100E0000482F8A81282F30E081E090E0022E02C036
:100E1000880F991F0A94E2F7842B8C93B3C0A7E341
:100E2000B0E0E7E3F0E08081482F8A81282F30E0AE
:100E300081E090E0022E02C0880F991F0A94E2F729
:100E4000842B8C939FC0A4E3B0E0E4E3F0E08081C6
:100E5000482F8A81282F30E081E090E0022E02C0E6
:100E6000880F991F0A94E2F7842B8C938BC0A1E31F
:100E7000B0E0E1E3F0E08081482F8A81282F30E064
:100E800081E090E0022E02C0880F991F0A94E2F7D9
:100E9000842B8C9377C08B81882309F073C0898160
:100EA000282F30E03D832C838C819D8181309105FA
:100EB00059F12C813D81223031052CF48C819D81AA
:100EC000009769F05FC02C813D812230310589F1A6
:100ED0008C819D818330910509F440C053C0AAE301
:100EE000B0E0EAE3F0E08081482F8A81282F30E0EB
:100EF00081E090E0022E02C0880F991F0A94E2F769
:100F0000809584238C933EC0A7E3B0E0E7E3F0E054
:100F10008081482F8A81282F30E081E090E0022EE6
:100F200002C0880F991F0A94E2F7809584238C935E
:100F300029C0A4E3B0E0E4E3F0E08081482F8A8197
:100F4000282F30E081E090E0022E02C0880F991F28
:100F50000A94E2F7809584238C9314C0A1E3B0E057
:100F6000E1E3F0E08081482F8A81282F30E081E0A2
:100F700090E0022E02C0880F991F0A94E2F7809534
:100F800084238C9327960FB6F894DEBF0FBECDBF97
:100F9000CF91DF910895DF93CF93CDB7DEB7279739
:100FA0000FB6F894DEBF0FBECDBF89836A834B8333
:100FB0008B81813009F06FC08981282F30E03F8319
:100FC0002E838E819F818130910549F12E813F8151
:100FD000223031052CF48E819F81009761F0D2C0C0
:100FE0002E813F812230310571F18E819F818330C6
:100FF0009105E9F1C7C0ABE3B0E0EBE3F0E080813D
:10100000482F8A81282F30E081E090E0022E02C034
:10101000880F991F0A94E2F7842B8C93B3C0A8E33E
:10102000B0E0E8E3F0E08081482F8A81282F30E0AB
:1010300081E090E0022E02C0880F991F0A94E2F727
:10104000842B8C939FC0A5E3B0E0E5E3F0E08081C2
:10105000482F8A81282F30E081E090E0022E02C0E4
:10106000880F991F0A94E2F7842B8C938BC0A2E31C
:10107000B0E0E2E3F0E08081482F8A81282F30E061
:1010800081E090E0022E02C0880F991F0A94E2F7D7
:10109000842B8C9377C08B81882309F073C089815E
:1010A000282F30E03D832C838C819D8181309105F8
:1010B00059F12C813D81223031052CF48C819D81A8
:1010C000009769F05FC02C813D812230310589F1A4
:1010D0008C819D818330910509F440C053C0ABE3FE
:1010E000B0E0EBE3F0E08081482F8A81282F30E0E8
:1010F00081E090E0022E02C0880F991F0A94E2F767
:10110000809584238C933EC0A8E3B0E0E8E3F0E050
:101110008081482F8A81282F30E081E090E0022EE4
:1011200002C0880F991F0A94E2F7809584238C935C
:1011300029C0A5E3B0E0E5E3F0E08081482F8A8193
:10114000282F30E081E090E0022E02C0880F991F26
:101150000A94E2F7809584238C9314C0A2E3B0E054
:10116000E2E3F0E08081482F8A81282F30E081E09F
:1011700090E0022E02C0880F991F0A94E2F7809532
:1011800084238C9327960FB6F894DEBF0FBECDBF95
:10119000CF91DF910895DF93CF9300D000D0CDB7EA
:1011A000DEB789836A838981282F30E03C832B83D3
:1011B0008B819C8181309105D1F02B813C81223043
:1011C00031052CF48B819C81009761F01EC02B812E
:1011D0003C812230310581F08B819C8183309105E7
:1011E00081F013C0EAE3F0E08A8180830EC0E7E378
:1011F000F0E08A81808309C0E4E3F0E08A818083A3
:1012000004C0E1E3F0E08A8180830F900F900F909B
:101210000F90CF91DF910895DF93CF9300D000D04E
:10122000CDB7DEB789836A838981282F30E03C837C
:101230002B838B819C8181309105D1F02B813C8166
:10124000223031052CF48B819C81009761F01EC007
:101250002B813C812230310581F08B819C81833050
:10126000910581F013C0EBE3F0E08A8180830EC02A
:10127000E8E3F0E08A81808309C0E5E3F0E08A8159
:10128000808304C0E2E3F0E08A8180830F900F90B6
:101290000F900F90CF91DF910895DF93CF9300D0FF
:1012A00000D0CDB7DEB789836A838981282F30E0EB
:1012B0003C832B838B819C818130910549F12B816B
:1012C0003C81223031052CF48B819C81009761F0A8
:1012D0005AC02B813C812230310571F18B819C8178
:1012E00083309105E9F14FC0ABE3B0E0EBE3F0E010
:1012F0008081482F8A81282F30E081E090E0022E03
:1013000002C0880F991F0A94E2F784278C933BC090
:10131000A8E3B0E0E8E3F0E08081482F8A81282F3D
:1013200030E081E090E0022E02C0880F991F0A94FD
:10133000E2F784278C9327C0A5E3B0E0E5E3F0E073
:101340008081482F8A81282F30E081E090E0022EB2
:1013500002C0880F991F0A94E2F784278C9313C068
:10136000A2E3B0E0E2E3F0E08081482F8A81282FF9
:1013700030E081E090E0022E02C0880F991F0A94AD
:10138000E2F784278C930F900F900F900F90CF91DE
:10139000DF910895DF93CF93CDB7DEB729970FB6CE
:1013A000F894DEBF0FBECDBF89836A838981282F61
:1013B00030E038872F838F81988581309105C9F07F
:1013C0002F813885223031052CF48F819885009744
:1013D00061F01AC02F8138852230310571F08F817C
:1013E00098858330910569F00FC0E9E3F0E09081C2
:1013F0000BC0E6E3F0E0208107C0E3E3F0E03081DA
:1014000003C0E0E3F0E0808129960FB6F894DEBFD8
:101410000FBECDBFCF91DF910895DF93CF93CDB7AE
:10142000DEB7AFE5B0E0EFE5F0E0808180688C9357
:10143000ABE5B0E0EBE5F0E0808180648C93A5E55E
:10144000B0E0E5E5F0E080818E7F8C93A5E5B0E02B
:10145000E5E5F0E0808182608C93CF91DF91089583
:10146000DF93CF9300D0CDB7DEB79A83898389818C
:101470009A8190937100809370000F900F90CF919C
:10148000DF910895DF93CF93CDB7DEB7AFE5B0E03E
:10149000EFE5F0E0808180688C93ABE5B0E0EBE5B0
:1014A000F0E0808180688C93A5E5B0E0E5E5F0E0B0
:1014B00080818B7F8C93A5E5B0E0E5E5F0E080814D
:1014C00088608C93CF91DF910895DF93CF9300D004
:1014D000CDB7DEB79A83898389819A8190936F0013
:1014E00080936E000F900F90CF91DF910895DF935E
:1014F000CF93CDB7DEB7AFE5B0E0EFE5F0E08081A8
:1015000080688C93ABE5B0E0EBE5F0E08081806231
:101510008C93A4E5B0E0E4E5F0E080818F7B8C93D0
:10152000CF91DF910895DF93CF9300D0CDB7DEB791
:101530009A83898389819A8190936D0080936C004E
:101540000F900F90CF91DF9108951F920F920FB6D9
:101550000F9211242F933F934F935F936F937F9339
:101560008F939F93AF93BF93EF93FF93DF93CF93AB
:10157000CDB7DEB7E0917000F09171000995CF9181
:10158000DF91FF91EF91BF91AF919F918F917F91EB
:101590006F915F914F913F912F910F900FBE0F90E0
:1015A0001F9018951F920F920FB60F9211242F9330
:1015B0003F934F935F936F937F938F939F93AF93DB
:1015C000BF93EF93FF93DF93CF93CDB7DEB7E09157
:1015D0006E00F0916F000995CF91DF91FF91EF912F
:1015E000BF91AF919F918F917F916F915F914F913B
:1015F0003F912F910F900FBE0F901F9018951F9243
:101600000F920FB60F9211242F933F934F935F9336
:101610006F937F938F939F93AF93BF93EF93FF93BA
:10162000DF93CF93CDB7DEB7E0916C00F0916D0002
:101630000995CF91DF91FF91EF91BF91AF919F916C
:101640008F917F916F915F914F913F912F910F906B
:101650000FBE0F901F9018950F931F93DF93CF939A
:10166000CDB7DEB7CC54D0400FB6F894DEBF0FBE76
:10167000CDBF80E060E041E00E94CB0680E061E009
:1016800041E00E94CB0680E062E041E00E94CB0690
:1016900081E06FEF0E94CB08FE01E75BFF4F80E027
:1016A00090E0ACE0B2E480839183A283B3838E01A7
:1016B0000B5B1F4FFE01E75BFF4F608171818281F1
:1016C000938120E030E04AEF54E40E941F02DC01E5
:1016D000CB01F80180839183A283B383FE01EB5B8E
:1016E000FF4F608171818281938120E030E040E88A
:1016F0005FE30E942504882344F4FE01ED5BFF4F65
:1017000081E090E09183808364C0FE01EB5BFF4F3A
:10171000608171818281938120E03FEF4FE757E440
:101720000E94C50318160CF043C0FE01E75BFF4F93
:10173000608171818281938120E030E040E251E458
:101740000E941F02DC01CB018E010D5B1F4FBC010B
:10175000CD010E944900DC01CB01F8019183808317
:101760001FC0FE01EF5BFF4F88EC90E09183808308
:10177000FE01EF5BFF4F808191810197F1F7FE0140
:10178000EF5BFF4F91838083DE01AD5BBF4FFE01B6
:10179000ED5BFF4F80819181019711969C938E9311
:1017A000FE01ED5BFF4F808191810097D1F624C04F
:1017B0008E010D5B1F4FFE01EB5BFF4F608171815E
:1017C000828193810E944900DC01CB01F801918361
:1017D0008083FE01ED5BFF4F80819181FE01FF96CA
:1017E00091838083FE01FF96808191810197F1F7BB
:1017F000FE01FF969183808388E30E94020E80E0C1
:1018000090E0A4E3B2E48BAF9CAFADAFBEAF6BADE5
:101810007CAD8DAD9EAD2BEA3AEA4AE250E40E94DF
:101820001F02DC01CB018FAB98AFA9AFBAAF6FA994
:1018300078AD89AD9AAD20E030E040E85FE30E94EA
:10184000250488231CF481E08EAB91C06FA978AD8C
:1018500089AD9AAD20E030E04FE753E40E94C50324
:1018600018160CF07BC06BAD7CAD8DAD9EAD20E04D
:1018700030E04AE754E40E941903DC01CB018AAB53
:101880009BABACABBDAB6AA97BA98CA99DA920E0A1
:1018900030E04AEF54E40E941F02DC01CB018EA726
:1018A0009FA7A8ABB9AB6EA57FA588A999A920E091
:1018B00030E040E85FE30E94250488232CF481E0B7
:1018C00090E09DA78CA73FC06EA57FA588A999A988
:1018D00020E03FEF4FE757E40E94C50318164CF590
:1018E0006AA97BA98CA99DA920E030E040E251E4DF
:1018F0000E941F02DC01CB01BC01CD010E94490006
:10190000DC01CB019DA78CA70FC088EC90E09BA7C2
:101910008AA78AA59BA50197F1F79BA78AA78CA503
:101920009DA501979DA78CA78CA59DA5009769F7FC
:1019300024C06EA57FA588A999A90E944900DC0151
:10194000CB019DA78CA78CA59DA599A788A788A545
:1019500099A50197F1F799A788A70FC06FA978AD4E
:1019600089AD9AAD0E944900DC01CB018EAB8EA9F6
:101970008FA38FA18A95F1F78FA38CE00E94020EAE
:1019800080E090E0A4E3B2E48BA39CA3ADA3BEA34C
:101990006BA17CA18DA19EA12BEA3AEA4AE250E418
:1019A0000E941F02DC01CB018F8F98A3A9A3BAA3C9
:1019B0006F8D78A189A19AA120E030E040E85FE333
:1019C0000E94250488231CF481E08E8F91C06F8DC6
:1019D00078A189A19AA120E030E04FE753E40E946A
:1019E000C50318160CF07BC06BA17CA18DA19EA134
:1019F00020E030E04AE754E40E941903DC01CB0107
:101A00008A8F9B8FAC8FBD8F6A8D7B8D8C8D9D8DCA
:101A100020E030E04AEF54E40E941F02DC01CB01D9
:101A20008E8B9F8BA88FB98F6E897F89888D998DBA
:101A300020E030E040E85FE30E94250488232CF496
:101A400081E090E09D8B8C8B3FC06E897F89888D73
:101A5000998D20E03FEF4FE757E40E94C503181629
:101A60004CF56A8D7B8D8C8D9D8D20E030E040E2C1
:101A700051E40E941F02DC01CB01BC01CD010E9498
:101A80004900DC01CB019D8B8C8B0FC088EC90E072
:101A90009B8B8A8B8A899B890197F1F79B8B8A8B19
:101AA0008C899D8901979D8B8C8B8C899D89009752
:101AB00069F724C06E897F89888D998D0E944900BD
:101AC000DC01CB019D8B8C8B8C899D89998B888BBC
:101AD000888999890197F1F7998B888B0FC06F8D51
:101AE00078A189A19AA10E944900DC01CB018E8FC7
:101AF0008E8D8F878F858A95F1F78F8781E00E9481
:101B0000020E80E090E0A0E0B0E48B879C87AD8778
:101B1000BE876B857C858D859E8520E030E04AEF11
:101B200054E40E941F02DC01CB018F839887A987B0
:101B3000BA876F81788589859A8520E030E040E812
:101B40005FE30E94250488232CF481E090E09E83CB
:101B50008D833FC06F81788589859A8520E03FEF2E
:101B60004FE757E40E94C50318164CF56B857C853A
:101B70008D859E8520E030E040E251E40E941F0206
:101B8000DC01CB01BC01CD010E944900DC01CB018D
:101B90009E838D830FC088EC90E09C838B838B8128
:101BA0009C810197F1F79C838B838D819E810197A6
:101BB0009E838D838D819E81009769F714C06F810C
:101BC000788589859A850E944900DC01CB019E8336
:101BD0008D838D819E819A83898389819A810197E2
:101BE000F1F79A83898386E00E94020EC45BDF4F7F
:101BF0000FB6F894DEBF0FBECDBFCF91DF911F911E
:101C00000F910895DF93CF93CDB7DEB769970FB6E5
:101C1000F894DEBF0FBECDBF898F80E060E040E06A
:101C20000E94CB0780E061E040E00E94CB0781E0AA
:101C3000698D0E940C0980E062E041E00E94CB07C0
:101C400080E090E0A0E8BFE38D8B9E8BAF8BB88FD8
:101C50006D897E898F89988D2BEA3AEA4AE250E4B1
:101C60000E941F02DC01CB01898B9A8BAB8BBC8B52
:101C700069897A898B899C8920E030E040E85FE3BC
:101C80000E94250488231CF481E0888B91C0698917
:101C90007A898B899C8920E030E04FE753E40E94E9
:101CA000C50318160CF07BC06D897E898F89988DCD
:101CB00020E030E04AE754E40E941903DC01CB0144
:101CC0008C879D87AE87BF876C857D858E859F8538
:101CD00020E030E04AEF54E40E941F02DC01CB0117
:101CE00088879987AA87BB87688579858A859B8538
:101CF00020E030E040E85FE30E94250488232CF4D4
:101D000081E090E09F838E833FC0688579858A85D6
:101D10009B8520E03FEF4FE757E40E94C50318166C
:101D20004CF56C857D858E859F8520E030E040E216
:101D300051E40E941F02DC01CB01BC01CD010E94D5
:101D40004900DC01CB019F838E830FC088EC90E0BB
:101D50009D838C838C819D810197F1F79D838C837A
:101D60008E819F8101979F838E838E819F810097B3
:101D700069F724C0688579858A859B850E9449001A
:101D8000DC01CB019F838E838E819F819B838A831D
:101D90008A819B810197F1F79B838A830FC06989B0
:101DA0007A898B899C890E944900DC01CB01888B50
:101DB0008889898389818A95F1F7898380E062E047
:101DC00040E00E94CB0769960FB6F894DEBF0FBEC5
:101DD000CDBFCF91DF910895DF93CF93CDB7DEB71D
:101DE00069970FB6F894DEBF0FBECDBF898F80E034
:101DF00060E041E00E94CB0780E061E040E00E94AB
:101E0000CB0781E0698D0E940C0980E062E041E02F
:101E10000E94CB0780E090E0A0E8BFE38D8B9E8B13
:101E2000AF8BB88F6D897E898F89988D2BEA3AEABE
:101E30004AE250E40E941F02DC01CB01898B9A8B9D
:101E4000AB8BBC8B69897A898B899C8920E030E0D7
:101E500040E85FE30E94250488231CF481E0888B1E
:101E600091C069897A898B899C8920E030E04FE7AD
:101E700053E40E94C50318160CF07BC06D897E895F
:101E80008F89988D20E030E04AE754E40E941903DE
:101E9000DC01CB018C879D87AE87BF876C857D85F4
:101EA0008E859F8520E030E04AEF54E40E941F02B7
:101EB000DC01CB0188879987AA87BB8768857985EC
:101EC0008A859B8520E030E040E85FE30E9425049E
:101ED00088232CF481E090E09F838E833FC0688547
:101EE00079858A859B8520E03FEF4FE757E40E9484
:101EF000C50318164CF56C857D858E859F8520E081
:101F000030E040E251E40E941F02DC01CB01BC0141
:101F1000CD010E944900DC01CB019F838E830FC05D
:101F200088EC90E09D838C838C819D810197F1F7F3
:101F30009D838C838E819F8101979F838E838E8169
:101F40009F81009769F724C0688579858A859B857C
:101F50000E944900DC01CB019F838E838E819F818B
:101F60009B838A838A819B810197F1F79B838A8374
:101F70000FC069897A898B899C890E944900DC019C
:101F8000CB01888B8889898389818A95F1F7898338
:101F900080E062E040E00E94CB0769960FB6F894BB
:101FA000DEBF0FBECDBFCF91DF910895DF93CF93FA
:101FB00000D000D0CDB7DEB79C838B831A82198204
:101FC0000FC029813A818B819C81FC01E20FF31FB4
:101FD00080810E94EC0E89819A8101969A8389837F
:101FE00029813A818B819C81FC01E20FF31F808162
:101FF000882339F70F900F900F900F90CF91DF91BA
:102000000895DF93CF9300D000D0CDB7DEB76983BA
:102010007A838B839C830F900F900F900F90CF91BA
:10202000DF910895DF93CF9300D0CDB7DEB78983DA
:102030006A838981882329F48A8180580E94020E4C
:1020400007C08981813021F48A8180540E94020E68
:102050000F900F90CF91DF910895DF93CF93CDB77D
:10206000DEB781E00E94020E80E80E94020ECF914E
:10207000DF910895DF93CF93CDB7DEB7ADE2B0E047
:10208000EDE2F0E0808180618C93ADE2B0E0EDE2C2
:10209000F0E080818F7D8C93ADE2B0E0EDE2F0E086
:1020A000808181608C93ADE2B0E0EDE2F0E0808170
:1020B0008D7F8C93ADE2B0E0EDE2F0E080818E7F29
:1020C0008C93ADE2B0E0EDE2F0E0808184608C932F
:1020D000ADE2B0E0EDE2F0E0808188608C93ADE2AB
:1020E000B0E0EDE2F0E0808180648C93CF91DF91ED
:1020F0000895DF93CF93CDB7DEB7ADE2B0E0EDE268
:10210000F0E080818F7E8C93ADE2B0E0EDE2F0E014
:1021100080818F7D8C93ADE2B0E0EDE2F0E08081D4
:1021200084608C93ADE2B0E0EDE2F0E08081886005
:102130008C93ADE2B0E0EDE2F0E0808180648C93BE
:10214000CF91DF910895DF93CF930F92CDB7DEB794
:102150008983EFE2F0E0898180830F90CF91DF9156
:102160000895DF93CF93CDB7DEB7EEE2F0E0808144
:102170008823DCF7EFE2F0E08081CF91DF910895D2
:10218000DF93CF93CDB7DEB7A3E5B0E0E3E5F0E0B2
:10219000808180648C93A3E5B0E0E3E5F0E080818A
:1021A00088608C93A3E5B0E0E3E5F0E080818F7E6A
:1021B0008C93A3E5B0E0E3E5F0E0808180628C934E
:1021C000A3E5B0E0E3E5F0E080818E7F8C93A3E5AA
:1021D000B0E0E3E5F0E0808182608C93A3E5B0E0BD
:1021E000E3E5F0E080818B7F8C93CF91DF910895C0
:1021F000DF93CF9300D0CDB7DEB79A8389838981EF
:102200009A8190937300809372000F900F90CF91FA
:10221000DF9108951F920F920FB60F9211242F9302
:102220003F934F935F936F937F938F939F93AF935E
:10223000BF93EF93FF93DF93CF93CDB7DEB780913A
:1022400068009091690001969093690080936800FE
:1022500080916800909169002FE08334920769F4BF
:102260001092690010926800E2E5F0E080EC808353
:10227000E0917200F09173000995CF91DF91FF9189
:10228000EF91BF91AF919F918F917F916F915F91EE
:102290004F913F912F910F900FBE0F901F90189567
:1022A0001F920F920FB60F9211242F933F934F93CB
:1022B0005F936F937F938F939F93AF93BF93EF93AE
:1022C000FF93DF93CF93CDB7DEB780916A009091F3
:1022D0006B00019690936B0080936A0080916A0076
:1022E00090916B0027E28031920749F410926B00C5
:1022F00010926A00E0917200F09173000995CF91FD
:10230000DF91FF91EF91BF91AF919F918F917F915D
:102310006F915F914F913F912F910F900FBE0F9052
:102320001F901895DF93CF93CDB7DEB7AFE4B0E041
:10233000EFE4F0E080818E7F8C93AFE4B0E0EFE4D7
:10234000F0E0808182608C93AEE4B0E0EEE4F0E0F7
:10235000808188608C93AEE4B0E0EEE4F0E08081B0
:1023600080618C93AFE4B0E0EFE4F0E080818F7B9C
:102370008C93AFE4B0E0EFE4F0E0808180688C9370
:10238000E6E4F0E08FE19EE491838083EAE4F0E00C
:1023900084EF91E091838083AEE4B0E0EEE4F0E07E
:1023A00080818E7F8C93AEE4B0E0EEE4F0E080813B
:1023B00082608C93AEE4B0E0EEE4F0E080818B7F4D
:1023C0008C93CF91DF910895DF93CF93CDB7DEB794
:1023D000EE970FB6F894DEBF0FBECDBF81E067E089
:1023E00041E00E94CB0681E066E040E00E94CB061F
:1023F00081E065E041E00E94CB0681E064E041E0DD
:102400000E94CB060E943A100E944F06ECE5F0E0D5
:10241000108281E063E041E00E94CB060E94C01080
:1024200080E090E0AAEFB3E48DAB9EABAFABB8AF6A
:102430006DA97EA98FA998AD20E030E04AEF54E461
:102440000E941F02DC01CB0189AB9AABABABBCABEA
:1024500069A97AA98BA99CA920E030E040E85FE354
:102460000E94250488232CF481E090E098AB8FA78C
:102470003FC069A97AA98BA99CA920E03FEF4FE74B
:1024800057E40E94C50318164CF56DA97EA98FA9C3
:1024900098AD20E030E040E251E40E941F02DC01F0
:1024A000CB01BC01CD010E944900DC01CB0198ABFE
:1024B0008FA70FC088EC90E09EA78DA78DA59EA545
:1024C0000197F1F79EA78DA78FA598A9019798ABC3
:1024D0008FA78FA598A9009769F714C069A97AA951
:1024E0008BA99CA90E944900DC01CB0198AB8FA766
:1024F0008FA598A99CA78BA78BA59CA50197F1F701
:102500009CA78BA786E60E94A31080E00E948E06FF
:102510009EAF8DAF8DAD9EADCC01A0E0B0E020E0D0
:102520003AE040E050E0BC01CD010E942A14DC01F9
:10253000CB01072E7AE0B695A795979587957A9562
:10254000D1F7702D9CAF8BAF8BAD9CAD2AE030E006
:10255000B9010E944914CB019AAF89AF89AD9AADF8
:102560008431910508F076C0ECE5F0E0108280E05F
:1025700090E0A8ECB2E48FA398A7A9A7BAA76FA18F
:1025800078A589A59AA520E030E04AEF54E40E949E
:102590001F02DC01CB018BA39CA3ADA3BEA36BA147
:1025A0007CA18DA19EA120E030E040E85FE30E9485
:1025B000250488232CF481E090E09AA389A33FC0EE
:1025C0006BA17CA18DA19EA120E03FEF4FE757E4D6
:1025D0000E94C50318164CF56FA178A589A59AA588
:1025E00020E030E040E251E40E941F02DC01CB0118
:1025F000BC01CD010E944900DC01CB019AA389A353
:102600000FC088EC90E098A38F8F8F8D98A10197D1
:10261000F1F798A38F8F89A19AA101979AA389A313
:1026200089A19AA1009769F7FBCE6BA17CA18DA12E
:102630009EA10E944900DC01CB019AA389A389A134
:102640009AA19E8F8D8F8D8D9E8D0197F1F79E8F14
:102650008D8FE6CE89AD9AAD8531910508F47DC0A8
:1026600089AD9AAD8E31910508F077C0ECE5F0E0C8
:1026700086E6808380E090E0A8ECB2E4898F9A8FB0
:10268000AB8FBC8F698D7A8D8B8D9C8D20E030E077
:102690004AEF54E40E941F02DC01CB018D8B9E8B1C
:1026A000AF8BB88F6D897E898F89988D20E030E05F
:1026B00040E85FE30E94250488232CF481E090E049
:1026C0009C8B8B8B3FC06D897E898F89988D20E094
:1026D0003FEF4FE757E40E94C50318164CF5698D8C
:1026E0007A8D8B8D9C8D20E030E040E251E40E9499
:1026F0001F02DC01CB01BC01CD010E944900DC01BD
:10270000CB019C8B8B8B0FC088EC90E09A8B898BD4
:1027100089899A890197F1F79A8B898B8B899C8992
:1027200001979C8B8B8B8B899C89009769F778CE5E
:102730006D897E898F89988D0E944900DC01CB01CB
:102740009C8B8B8B8B899C89988B8F878F859889A5
:102750000197F1F7988B8F8763CE89AD9AAD8F3152
:10276000910508F45DCEECE5F0E08FEF808380E02A
:1027700090E0A8ECB2E48B879C87AD87BE876B8521
:102780007C858D859E8520E030E04AEF54E40E94F0
:102790001F02DC01CB018F839887A987BA876F81DD
:1027A000788589859A8520E030E040E85FE30E94E3
:1027B000250488232CF481E090E09E838D833FC024
:1027C0006F81788589859A8520E03FEF4FE757E450
:1027D0000E94C50318164CF56B857C858D859E85FA
:1027E00020E030E040E251E40E941F02DC01CB0116
:1027F000BC01CD010E944900DC01CB019E838D8389
:102800000FC088EC90E09C838B838B819C81019727
:10281000F1F79C838B838D819E8101979E838D83AD
:102820008D819E81009769F7FBCD6F8178858985C1
:102830009A850E944900DC01CB019E838D838D81A6
:102840009E819A83898389819A810197F1F79A837E
:102850008983E6CD629FD001739FF001829FE00DD6
:10286000F11D649FE00DF11D929FF00D839FF00D0F
:10287000749FF00D659FF00D9927729FB00DE11DBB
:10288000F91F639FB00DE11DF91FBD01CF01112498
:102890000895AA1BBB1B51E107C0AA1FBB1FA617A7
:1028A000B70710F0A61BB70B881F991F5A95A9F7F9
:1028B00080959095BC01CD0108952F923F924F9243
:1028C0005F926F927F928F929F92AF92BF92CF92C0
:1028D000DF92EF92FF920F931F93CF93DF93CDB7C9
:1028E000DEB7CA1BDB0B0FB6F894DEBF0FBECDBF41
:1028F00009942A88398848885F846E847D848C8412
:102900009B84AA84B984C884DF80EE80FD800C811A
:102910001B81AA81B981CE0FD11D0FB6F894DEBFFD
:0C2920000FBECDBFED010895F894FFCF6D
:08292C000000000000000000A3
:00000001FF
